{
  "_format": "hh-sol-artifact-1",
  "contractName": "ERC721Staking",
  "sourceName": "contracts/ERC721Staking.sol",
  "abi": [
    {
      "inputs": [
        {
          "internalType": "address",
          "name": "_stakingToken",
          "type": "address"
        },
        {
          "internalType": "address",
          "name": "_poolToken",
          "type": "address"
        },
        {
          "internalType": "address",
          "name": "_artistWallet",
          "type": "address"
        }
      ],
      "stateMutability": "nonpayable",
      "type": "constructor"
    },
    {
      "anonymous": false,
      "inputs": [
        {
          "indexed": true,
          "internalType": "address",
          "name": "previousOwner",
          "type": "address"
        },
        {
          "indexed": true,
          "internalType": "address",
          "name": "newOwner",
          "type": "address"
        }
      ],
      "name": "OwnershipTransferred",
      "type": "event"
    },
    {
      "anonymous": false,
      "inputs": [
        {
          "indexed": false,
          "internalType": "address",
          "name": "account",
          "type": "address"
        }
      ],
      "name": "Paused",
      "type": "event"
    },
    {
      "anonymous": false,
      "inputs": [
        {
          "indexed": false,
          "internalType": "uint256",
          "name": "reward",
          "type": "uint256"
        }
      ],
      "name": "RewardAdded",
      "type": "event"
    },
    {
      "anonymous": false,
      "inputs": [
        {
          "indexed": true,
          "internalType": "address",
          "name": "user",
          "type": "address"
        },
        {
          "indexed": false,
          "internalType": "uint256",
          "name": "reward",
          "type": "uint256"
        }
      ],
      "name": "RewardPaid",
      "type": "event"
    },
    {
      "anonymous": false,
      "inputs": [
        {
          "indexed": true,
          "internalType": "address",
          "name": "user",
          "type": "address"
        },
        {
          "indexed": false,
          "internalType": "uint256",
          "name": "amount",
          "type": "uint256"
        },
        {
          "indexed": false,
          "internalType": "uint256[]",
          "name": "tokenIds",
          "type": "uint256[]"
        }
      ],
      "name": "Staked",
      "type": "event"
    },
    {
      "anonymous": false,
      "inputs": [
        {
          "indexed": false,
          "internalType": "uint256",
          "name": "newDuration",
          "type": "uint256"
        }
      ],
      "name": "StakingPeriodUpdated",
      "type": "event"
    },
    {
      "anonymous": false,
      "inputs": [
        {
          "indexed": false,
          "internalType": "address",
          "name": "account",
          "type": "address"
        }
      ],
      "name": "Unpaused",
      "type": "event"
    },
    {
      "anonymous": false,
      "inputs": [
        {
          "indexed": true,
          "internalType": "address",
          "name": "user",
          "type": "address"
        },
        {
          "indexed": false,
          "internalType": "uint256",
          "name": "amount",
          "type": "uint256"
        },
        {
          "indexed": false,
          "internalType": "uint256[]",
          "name": "tokenIds",
          "type": "uint256[]"
        }
      ],
      "name": "Withdrawn",
      "type": "event"
    },
    {
      "inputs": [
        {
          "internalType": "uint256",
          "name": "amount",
          "type": "uint256"
        }
      ],
      "name": "addToPool",
      "outputs": [],
      "stateMutability": "payable",
      "type": "function"
    },
    {
      "inputs": [
        {
          "internalType": "address",
          "name": "_poolToken",
          "type": "address"
        }
      ],
      "name": "changePoolToken",
      "outputs": [],
      "stateMutability": "nonpayable",
      "type": "function"
    },
    {
      "inputs": [],
      "name": "checkPoolToken",
      "outputs": [
        {
          "internalType": "contract IERC20",
          "name": "",
          "type": "address"
        }
      ],
      "stateMutability": "view",
      "type": "function"
    },
    {
      "inputs": [
        {
          "internalType": "address",
          "name": "staker",
          "type": "address"
        }
      ],
      "name": "checkRewardBalance",
      "outputs": [
        {
          "internalType": "uint256",
          "name": "",
          "type": "uint256"
        }
      ],
      "stateMutability": "view",
      "type": "function"
    },
    {
      "inputs": [],
      "name": "checkUnclaimedRewards",
      "outputs": [
        {
          "internalType": "uint256",
          "name": "",
          "type": "uint256"
        }
      ],
      "stateMutability": "view",
      "type": "function"
    },
    {
      "inputs": [],
      "name": "claimReward",
      "outputs": [],
      "stateMutability": "nonpayable",
      "type": "function"
    },
    {
      "inputs": [],
      "name": "distributeRewards",
      "outputs": [],
      "stateMutability": "nonpayable",
      "type": "function"
    },
    {
      "inputs": [],
      "name": "getPoolBalance",
      "outputs": [
        {
          "internalType": "uint256",
          "name": "",
          "type": "uint256"
        }
      ],
      "stateMutability": "view",
      "type": "function"
    },
    {
      "inputs": [
        {
          "internalType": "address",
          "name": "staker",
          "type": "address"
        }
      ],
      "name": "getStakedTokens",
      "outputs": [
        {
          "internalType": "uint256[]",
          "name": "",
          "type": "uint256[]"
        }
      ],
      "stateMutability": "view",
      "type": "function"
    },
    {
      "inputs": [
        {
          "internalType": "address",
          "name": "",
          "type": "address"
        },
        {
          "internalType": "address",
          "name": "",
          "type": "address"
        },
        {
          "internalType": "uint256",
          "name": "",
          "type": "uint256"
        },
        {
          "internalType": "bytes",
          "name": "",
          "type": "bytes"
        }
      ],
      "name": "onERC721Received",
      "outputs": [
        {
          "internalType": "bytes4",
          "name": "",
          "type": "bytes4"
        }
      ],
      "stateMutability": "nonpayable",
      "type": "function"
    },
    {
      "inputs": [],
      "name": "owner",
      "outputs": [
        {
          "internalType": "address",
          "name": "",
          "type": "address"
        }
      ],
      "stateMutability": "view",
      "type": "function"
    },
    {
      "inputs": [],
      "name": "paused",
      "outputs": [
        {
          "internalType": "bool",
          "name": "",
          "type": "bool"
        }
      ],
      "stateMutability": "view",
      "type": "function"
    },
    {
      "inputs": [],
      "name": "poolToken",
      "outputs": [
        {
          "internalType": "contract IERC20",
          "name": "",
          "type": "address"
        }
      ],
      "stateMutability": "view",
      "type": "function"
    },
    {
      "inputs": [],
      "name": "renounceOwnership",
      "outputs": [],
      "stateMutability": "nonpayable",
      "type": "function"
    },
    {
      "inputs": [
        {
          "internalType": "uint256[]",
          "name": "tokenIds",
          "type": "uint256[]"
        }
      ],
      "name": "stake",
      "outputs": [],
      "stateMutability": "nonpayable",
      "type": "function"
    },
    {
      "inputs": [],
      "name": "stakingToken",
      "outputs": [
        {
          "internalType": "contract IERC721",
          "name": "",
          "type": "address"
        }
      ],
      "stateMutability": "view",
      "type": "function"
    },
    {
      "inputs": [
        {
          "internalType": "address",
          "name": "newOwner",
          "type": "address"
        }
      ],
      "name": "transferOwnership",
      "outputs": [],
      "stateMutability": "nonpayable",
      "type": "function"
    },
    {
      "inputs": [
        {
          "internalType": "uint256[]",
          "name": "tokenIds",
          "type": "uint256[]"
        }
      ],
      "name": "unstake",
      "outputs": [],
      "stateMutability": "nonpayable",
      "type": "function"
    }
  ],
  "bytecode": "0x60806040523480156200001157600080fd5b506040516200186338038062001863833981016040819052620000349162000104565b6001600055620000443362000095565b6001805460ff60a01b19169055600380546001600160a01b038086166001600160a01b03199283161790925560028054928516929091169190911790556200008c8162000095565b5050506200014e565b600180546001600160a01b038381166001600160a01b0319831681179093556040519116919082907f8be0079c531659141344cd1fd0a4f28419497f9722a3daafe3b4186f6b6457e090600090a35050565b80516001600160a01b0381168114620000ff57600080fd5b919050565b6000806000606084860312156200011a57600080fd5b6200012584620000e7565b92506200013560208501620000e7565b91506200014560408501620000e7565b90509250925092565b611705806200015e6000396000f3fe6080604052600436106101095760003560e01c8063715018a611610095578063b88a802f11610064578063b88a802f146102d1578063c9b5e971146102e6578063cbdf382c1461031f578063e449f3411461033f578063f2fde38b1461035f57600080fd5b8063715018a61461026957806372f702f31461027e5780638da5cb5b1461029e578063abd70aa2146102bc57600080fd5b80633c74662d116100dc5780633c74662d146101ab57806350148060146101cb5780635c975abb146101fd57806363c28db1146102275780636f4a2cd01461025457600080fd5b80630a7ffe591461010e5780630fbf0a9314610132578063150b7a02146101545780631c5fc48314610198575b600080fd5b34801561011a57600080fd5b506006545b6040519081526020015b60405180910390f35b34801561013e57600080fd5b5061015261014d3660046113fe565b61037f565b005b34801561016057600080fd5b5061017f61016f36600461133e565b630a85bd0160e11b949350505050565b6040516001600160e01b03199091168152602001610129565b6101526101a63660046114cd565b6106c6565b3480156101b757600080fd5b506101526101c636600461131c565b610799565b3480156101d757600080fd5b506002546001600160a01b03165b6040516001600160a01b039091168152602001610129565b34801561020957600080fd5b50600154600160a01b900460ff166040519015158152602001610129565b34801561023357600080fd5b5061024761024236600461131c565b6107e5565b604051610129919061153a565b34801561026057600080fd5b50610152610851565b34801561027557600080fd5b506101526109d2565b34801561028a57600080fd5b506003546101e5906001600160a01b031681565b3480156102aa57600080fd5b506001546001600160a01b03166101e5565b3480156102c857600080fd5b5061011f610a08565b3480156102dd57600080fd5b50610152610a9d565b3480156102f257600080fd5b5061011f61030136600461131c565b6001600160a01b031660009081526008602052604090206001015490565b34801561032b57600080fd5b506002546101e5906001600160a01b031681565b34801561034b57600080fd5b5061015261035a3660046113fe565b610ad4565b34801561036b57600080fd5b5061015261037a36600461131c565b610de7565b600260005414156103ab5760405162461bcd60e51b81526004016103a290611582565b60405180910390fd5b6002600055600154600160a01b900460ff16156103fd5760405162461bcd60e51b815260206004820152601060248201526f14185d5cd8589b194e881c185d5cd95960821b60448201526064016103a2565b805161044b5760405162461bcd60e51b815260206004820152601d60248201527f5374616b696e673a204e6f20746f6b656e4964732070726f766964656400000060448201526064016103a2565b336000908152600a602052604090205442116104db5760405162461bcd60e51b815260206004820152604360248201527f596f75206d757374207761697420756e74696c2074776f207765656b7320686160448201527f76652070617373656420746f207374616b65207468697320617373657420616760648201526230b4b760e91b608482015260a4016103a2565b336000908152600860205260408120905b8251811015610667578160000183828151811061050b5761050b6116a3565b6020908102919091018101518254600181018455600093845291909220015560035483516001600160a01b03909116906342842e0e9033903090879086908110610557576105576116a3565b60209081029190910101516040516001600160e01b031960e086901b1681526001600160a01b0393841660048201529290911660248301526044820152606401600060405180830381600087803b1580156105b157600080fd5b505af11580156105c5573d6000803e3d6000fd5b5050505033600960008584815181106105e0576105e06116a3565b6020908102919091018101518252810191909152604001600090812080546001600160a01b03939093166001600160a01b03199384161790556007805460018181018355919092527fa66cc928b5edb82af9bd49922954155ab7b0942694bea4ce44661d9a8736c68890910180549092163317909155610660908261160b565b90506104ec565b5081516005600082825461067b919061160b565b9091555050815160405133917fb18ab713c223cf8d1394fb3018faad3e87f34414cc9d74b6eff3510d05359d85916106b5919086906115b9565b60405180910390a250506001600055565b8061070b5760405162461bcd60e51b815260206004820152601560248201527404d7573742073656e64206d6f7265207468616e203605c1b60448201526064016103a2565b6002546040516323b872dd60e01b8152336004820152306024820152604481018390526001600160a01b03909116906323b872dd90606401602060405180830381600087803b15801561075d57600080fd5b505af1158015610771573d6000803e3d6000fd5b505050506040513d601f19601f8201168201806040525081019061079591906114ab565b5050565b6001546001600160a01b031633146107c35760405162461bcd60e51b81526004016103a29061154d565b600280546001600160a01b0319166001600160a01b0392909216919091179055565b6001600160a01b03811660009081526008602090815260409182902080548351818402810184019094528084526060939283018282801561084557602002820191906000526020600020905b815481526020019060010190808311610831575b50505050509050919050565b6001546001600160a01b0316331461087b5760405162461bcd60e51b81526004016103a29061154d565b6006546002546040516370a0823160e01b8152306004820152600092839290916001600160a01b03909116906370a082319060240160206040518083038186803b1580156108c857600080fd5b505afa1580156108dc573d6000803e3d6000fd5b505050506040513d601f19601f8201168201806040525081019061090091906114e6565b61090a9190611645565b905060006005548261091c9190611623565b905060005b6005548110156109cc576007818154811061093e5761093e6116a3565b60009182526020808320909101546001600160a01b031680835260089091526040822060010180549196508492909161097890849061160b565b90915550506001600160a01b0384166000908152600860205260409020600101546109a290610e82565b81600660008282546109b4919061160b565b909155508190506109c48161165c565b915050610921565b50505050565b6001546001600160a01b031633146109fc5760405162461bcd60e51b81526004016103a29061154d565b610a066000610ec7565b565b6006546002546040516370a0823160e01b8152306004820152600092839290916001600160a01b03909116906370a082319060240160206040518083038186803b158015610a5557600080fd5b505afa158015610a69573d6000803e3d6000fd5b505050506040513d601f19601f82011682018060405250810190610a8d91906114e6565b610a979190611645565b92915050565b60026000541415610ac05760405162461bcd60e51b81526004016103a290611582565b6002600055610acd610f19565b6001600055565b60026000541415610af75760405162461bcd60e51b81526004016103a290611582565b60026000558051610b4a5760405162461bcd60e51b815260206004820152601f60248201527f556e7374616b696e673a204e6f20746f6b656e4964732070726f76696465640060448201526064016103a2565b336000908152600860209081526040808320815181546060948102820185018452928101838152909391928492849190840182828015610ba957602002820191906000526020600020905b815481526020019060010190808311610b95575b50505050508152602001600182015481525050905060005b8251811015610dbc57336001600160a01b031660096000858481518110610bea57610bea6116a3565b6020908102919091018101518252810191909152604001600020546001600160a01b031614610c6a5760405162461bcd60e51b815260206004820152602660248201527f556e7374616b696e673a2043616c6c657220646f6573206e6f74206f776e20746044820152651bdad95b925960d21b60648201526084016103a2565b60035483516001600160a01b03909116906342842e0e9030903390879086908110610c9757610c976116a3565b60209081029190910101516040516001600160e01b031960e086901b1681526001600160a01b0393841660048201529290911660248301526044820152606401600060405180830381600087803b158015610cf157600080fd5b505af1158015610d05573d6000803e3d6000fd5b50505050610d303383600001518381518110610d2357610d236116a3565b6020026020010151611004565b610d3933611086565b600060096000858481518110610d5157610d516116a3565b6020026020010151815260200190815260200160002060006101000a8154816001600160a01b0302191690836001600160a01b031602179055504262127500610d9a919061160b565b336000908152600a6020526040902055610db560018261160b565b9050610bc1565b50815160056000828254610dd09190611645565b90915550610dde9050610f19565b50506001600055565b6001546001600160a01b03163314610e115760405162461bcd60e51b81526004016103a29061154d565b6001600160a01b038116610e765760405162461bcd60e51b815260206004820152602660248201527f4f776e61626c653a206e6577206f776e657220697320746865207a65726f206160448201526564647265737360d01b60648201526084016103a2565b610e7f81610ec7565b50565b610e7f81604051602401610e9891815260200190565b60408051601f198184030181529190526020810180516001600160e01b031663f5b1bba960e01b1790526110e6565b600180546001600160a01b038381166001600160a01b0319831681179093556040519116919082907f8be0079c531659141344cd1fd0a4f28419497f9722a3daafe3b4186f6b6457e090600090a35050565b336000818152600860205260409081902060010154600254915163a9059cbb60e01b8152600481019390935260248301819052916001600160a01b039091169063a9059cbb90604401602060405180830381600087803b158015610f7c57600080fd5b505af1158015610f90573d6000803e3d6000fd5b505050506040513d601f19601f82011682018060405250810190610fb491906114ab565b508060066000828254610fc79190611645565b909155505060405181815233907fe2403640ba68fed3a2f88b7557551d1993f84b99bb10ff833f0cf8db0c5e04869060200160405180910390a250565b60005b6001600160a01b038316600090815260086020526040902054811015611081576001600160a01b0383166000908152600860205260409020805483919083908110611054576110546116a3565b9060005260206000200154141561106f5761106f8382611107565b806110798161165c565b915050611007565b505050565b60005b60075481101561079557816001600160a01b0316600782815481106110b0576110b06116a3565b6000918252602090912001546001600160a01b031614156110d4576110d481611221565b806110de8161165c565b915050611089565b80516a636f6e736f6c652e6c6f67602083016000808483855afa5050505050565b6001600160a01b038216600090815260086020526040902054811061112a575050565b805b6001600160a01b03831660009081526008602052604090205461115190600190611645565b8110156111df576001600160a01b038316600090815260086020526040902061117b82600161160b565b8154811061118b5761118b6116a3565b60009182526020808320909101546001600160a01b0386168352600890915260409091208054839081106111c1576111c16116a3565b600091825260209091200155806111d78161165c565b91505061112c565b506001600160a01b03821660009081526008602052604090208054806112075761120761168d565b600190038181906000526020600020016000905590555050565b600754811061122d5750565b805b60075461123e90600190611645565b8110156112c957600761125282600161160b565b81548110611262576112626116a3565b600091825260209091200154600780546001600160a01b03909216918390811061128e5761128e6116a3565b600091825260209091200180546001600160a01b0319166001600160a01b0392909216919091179055806112c18161165c565b91505061122f565b5060078054806112db576112db61168d565b600082815260209020810160001990810180546001600160a01b031916905501905550565b80356001600160a01b038116811461131757600080fd5b919050565b60006020828403121561132e57600080fd5b61133782611300565b9392505050565b6000806000806080858703121561135457600080fd5b61135d85611300565b9350602061136c818701611300565b935060408601359250606086013567ffffffffffffffff8082111561139057600080fd5b818801915088601f8301126113a457600080fd5b8135818111156113b6576113b66116b9565b6113c8601f8201601f191685016115da565b915080825289848285010111156113de57600080fd5b808484018584013760008482840101525080935050505092959194509250565b6000602080838503121561141157600080fd5b823567ffffffffffffffff8082111561142957600080fd5b818501915085601f83011261143d57600080fd5b81358181111561144f5761144f6116b9565b8060051b91506114608483016115da565b8181528481019084860184860187018a101561147b57600080fd5b600095505b8386101561149e578035835260019590950194918601918601611480565b5098975050505050505050565b6000602082840312156114bd57600080fd5b8151801515811461133757600080fd5b6000602082840312156114df57600080fd5b5035919050565b6000602082840312156114f857600080fd5b5051919050565b600081518084526020808501945080840160005b8381101561152f57815187529582019590820190600101611513565b509495945050505050565b60208152600061133760208301846114ff565b6020808252818101527f4f776e61626c653a2063616c6c6572206973206e6f7420746865206f776e6572604082015260600190565b6020808252601f908201527f5265656e7472616e637947756172643a207265656e7472616e742063616c6c00604082015260600190565b8281526040602082015260006115d260408301846114ff565b949350505050565b604051601f8201601f1916810167ffffffffffffffff81118282101715611603576116036116b9565b604052919050565b6000821982111561161e5761161e611677565b500190565b60008261164057634e487b7160e01b600052601260045260246000fd5b500490565b60008282101561165757611657611677565b500390565b600060001982141561167057611670611677565b5060010190565b634e487b7160e01b600052601160045260246000fd5b634e487b7160e01b600052603160045260246000fd5b634e487b7160e01b600052603260045260246000fd5b634e487b7160e01b600052604160045260246000fdfea2646970667358221220a89e1e1b0032d98ad4e47442c5d5613145c255cb10f6cd187234423fccee16d064736f6c63430008070033",
  "linkReferences": {},
  "deployedLinkReferences": {}
}